S012000063616C63756C61746F722E73726563E8
S11300000C942A000C9447000C9447000C9447006D
S11300100C9447000C9447000C9447000C94470040
S11300200C9447000C9447000C9447000C94470030
S11300300C9447000C9447000C9447000C94470020
S11300400C9447000C9447000C9447000C94470010
S11300500C94470011241FBECFE5D8E0DEBFCDBF0E
S113006010E0A0E6B0E0E0E6FCE002C005900D92EE
S1130070AA3BB107D9F720E0AAEBB0E001C01D927A
S1130080AA3BB207E1F70E941C020C942E060C94C2
S11300900000DF92EF92FF920F931F93CF93DF93B1
S11300A094E9E92E90E0F92ECCE0D4E560E08C2FC1
S11300B00E94130300E010E08AE1D82ED00E8D2DAB
S11300C00E949203811109C0F701E00FF11FD08152
S11300D08D2D0E9492038823D9F30F5F1F4F0430A4
S11300E0110551F761E08C2F0E941303CF5F84E068
S11300F0E80EF11CC031D1F68D2FDF91CF911F9105
S11301000F91FF90EF90DF900895CF93C82F60E098
S113011081E00E9413036C2F661F6627661F86E02A
S11301200E941303C6FB662760F985E00E9413034F
S1130130C5FB662760F984E00E941303C4FB6627AD
S113014060F983E00E94130361E082E00E941303DC
S11301508FEC97E00197F1F700C0000060E082E0C7
S11301600E9413038FEC97E00197F1F700C00000A1
S1130170C3FB662760F986E00E941303C2FB66276F
S113018060F985E00E941303C1FB662760F984E0EF
S11301900E9413036C2F617083E00E94130361E0DB
S11301A082E00E9413038FEC97E00197F1F700C0FF
S11301B0000060E082E00E9413038FEC97E0019757
S11301C0F1F700C00000CF910895CF93C82F61E0EC
S11301D081E00E9413036C2F661F6627661F86E06A
S11301E00E941303C6FB662760F985E00E9413038F
S11301F0C5FB662760F984E00E941303C4FB6627ED
S113020060F983E00E94130361E082E00E9413031B
S11302108FEC97E00197F1F700C0000060E082E006
S11302200E9413038FEC97E00197F1F700C00000E0
S1130230C3FB662760F986E00E941303C2FB6627AE
S113024060F985E00E941303C1FB662760F984E02E
S11302500E9413036C2F617083E00E94130361E01A
S113026082E00E9413038FEC97E00197F1F700C03E
S1130270000060E082E00E9413038FEC97E0019796
S1130280F1F700C00000CF9108952FE788E391E0D3
S1130290215080409040E1F700C0000082E00E94BD
S11302A0850088E20E9485008CE00E94850081E040
S11302B00E9485008FEC97E00197F1F700C00000E1
S11302C086E00C9485000C94E5000F931F93CF9364
S11302D08C01C0E0F801EC0FF11D8081882321F02E
S11302E00E94E500CF5FF6CFCF911F910F91089543
S11302F04F925F926F927F92AF92BF92CF92DF92B2
S1130300EF92FF920F931F93CF93DF93CDB7DEB796
S11303102A970FB6F894DEBF0FBECDBF6B017C01E8
S11303206115710581059105B9F480E32A960FB62C
S1130330F894DEBF0FBECDBFDF91CF911F910F9117
S1130340FF90EF90DF90CF90BF90AF907F906F9031
S11303505F904F900C94E50097FF0BC08DE20E94D4
S1130360E500F094E094D094C094C11CD11CE11C2D
S1130370F11C10E09AE0492E512C612C712C01E003
S1130380010FAA24A394B12CAC0EBD1EA10EB11C66
S113039017FDBA94C701B601A30192010E94D305C7
S11303A0605DF501608369017A01C114D104E1043F
S11303B0F10411F0102FE3CF17FD0DC0E1E0F0E0E0
S11303C0EC0FFD1FE10FF11D17FDFA9580810E94CE
S11303D0E5001150F1CF2A960FB6F894DEBF0FBE98
S11303E0CDBFDF91CF911F910F91FF90EF90DF90E0
S11303F0CF90BF90AF907F906F905F904F90089593
S113040081E00E9485008FEC97E00197F1F700C02E
S113041000000895811102C080E801C080EC860FBD
S11304200C948500CF93DF93EA010E940A02CE0167
S1130430DF91CF910C946501CF93DF93CDB7DEB7F5
S113044065970FB6F894DEBF0FBECDBF0E94AF0311
S11304500E94450181E1E0E6F0E0DE0111960190A1
S11304600D928A95E1F7FE01729683E0DF011D92F9
S11304708A95E9F7AE014F5F5F4F60E080E00E942C
S1130480120260E081E00E940A0284EA90E00E9485
S11304906501BFEF21EE44E0B15020404040E1F758
S11304A000C000000E940002412C512C3201C12CDA
S11304B0D12C7601812C912C540100E0312C0E9426
S11304C04900182F80ED810F8D8B8A30D0F43110C4
S11304D022C0812F0E946301AAE0B0E0A50194012B
S11304E00E94F205212F30E04901A0E38A1A910805
S11304F0092C000CAA08BB08860E971EA81EB91E5C
S113050024C01B3261F58BE20E9463010BE22D894A
S11305102A3008F085C0812F0E946301AAE0B0E070
S1130520A70196010E94F205212F30E06901B0E392
S1130530CB1AD1080D2C000CEE08FF08C60ED71EEE
S1130540E81EF91E6DC01D33A1F0133609F0B7CFB4
S11305500E94000260E080E00E940A02A5CF1C32E3
S113056008F04FC01A3279F78AE20E9463010AE266
S1130570CECF66E081E00E940A020B3279F048F4A3
S11305800A32C1F5A5019401C701B6010E94C30551
S113059012C00D3251F00F3289F02CC0C501B401E4
S11305A06C0D7D1D8E1D9F1D06C0C501B4016C1907
S11305B07D098E099F090E9435051AC0C114D10412
S11305C0E104F10429F484EB90E00E94650112C077
S11305D0C501B4010E9435052B013C01C701B601D8
S11305E00E9435059B01AC01C301B2010E948D0438
S11305F02B013C01C301B2010E94FF040E94780157
S11306005ECF1D3229F48DE20E9463010DE27FCF9B
S11306101F3209F098CF8FE20E9463010FE277CF77
S11306203324339492CF982F969596959695877008
S113063061113CC0913099F028F09230E9F0933088
S113064041F108954BB321E030E0B90102C0660FD7
S1130650771F8A95E2F7CB01809584233AC048B38B
S113066021E030E0B90102C0660F771F8A95E2F7F6
S1130670CB01809584233AC045B321E030E0B90131
S113068002C0660F771F8A95E2F7CB018095842319
S11306903AC042B321E030E0B90102C0660F771FCF
S11306A08A95E2F7CB01809584233AC0913099F082
S11306B028F09230E9F0933041F108954BB321E0F2
S11306C030E0B90102C0660F771F8A95E2F7CB01CB
S11306D0842B8BBB089548B321E030E0B90102C0FC
S11306E0660F771F8A95E2F7CB01842B88BB0895A8
S11306F045B321E030E0B90102C0660F771F8A9547
S1130700E2F7CB01842B85BB089542B321E030E0AE
S1130710B90102C0660F771F8A95E2F7CB01842BDB
S113072082BB0895282F27708695869586958130FB
S113073049F030F0823041F0833079F480B305C061
S113074089B303C086B301C083B390E002C095951A
S113075087952A95E2F78170089580E00895E4E78B
S1130760F0E040E081E090E05191342F36953695E9
S11307703695242F2770513009F443C020F05230AD
S113078009F482C0C5C0323001F1333061F1313037
S113079071F05AB3BC0102C0660F771F2A95E2F7C5
S11307A09B01352F322B3ABB3BB320953DC057B349
S11307B0BC0102C0660F771F2A95E2F79B01352F13
S11307C0322B37BB38B320953EC054B3BC0102C0B2
S11307D0660F771F2A95E2F79B01352F322B34BB26
S11307E035B320953FC051B3BC0102C0660F771FDB
S11307F02A95E2F79B01352F322B31BB32B320957A
S113080041C0323011F1333081F1313079F05AB3D3
S1130810BC0102C0660F771F2A95E2F79B01209561
S1130820352F32233ABB3BB3232342C057B3BC0119
S113083002C0660F771F2A95E2F79B012095352F9A
S1130840322337BB38B3232343C054B3BC0102C0A3
S1130850660F771F2A95E2F79B012095352F3223E7
S113086034BB35B3232325BB53C051B3BC0102C0F1
S1130870660F771F2A95E2F79B012095352F3223C7
S113088031BB32B3232343C0323021F1333089F1F9
S1130890313081F05AB3BC0102C0660F771F2A952C
S11308A0E2F79B01362F309535233ABB3BB3232B1C
S11308B02BBB2EC057B3BC0102C0660F771F2A950D
S11308C0E2F79B01362F3095352337BB38B3232B02
S11308D028BB1EC054B3BC0102C0660F771F2A9503
S11308E0E2F79B01362F3095352334BB35B3232BE8
S11308F0BACF51B3BC0102C0660F771F2A95E2F745
S11309009B01362F3095352331BB32B3232B22BBC9
S11309104F5F403209F028CF08950E94A1040C943F
S113092089050E94820558F00E947B0540F029F455
S11309305F3F29F00C94720551110C94BD050C9481
S113094078050E949A0568F39923B1F3552391F32E
S1130950951B550BBB27AA2762177307840738F02A
S11309609F5F5F4F220F331F441FAA1FA9F335D087
S11309700E2E3AF0E0E832D091505040E695001C3B
S1130980CAF72BD0FE2F29D0660F771F881FBB1FF5
S1130990261737074807AB07B0E809F0BB0B802DD3
S11309A0BF01FF2793585F4F3AF09E3F510578F0FF
S11309B00C9472050C94BD055F3FE4F3983ED4F3A8
S11309C0869577956795B795F7959F5FC9F7880FD3
S11309D0911D9695879597F90895E1E0660F771F25
S11309E0881FBB1F621773078407BA0720F0621BB6
S11309F0730B840BBA0BEE1F88F7E09508950E94E1
S1130A0006056894B1110C94BD0508950E94A205D1
S1130A1088F09F5798F0B92F9927B751B0F0E1F0BB
S1130A20660F771F881F991F1AF0BA95C9F714C06B
S1130A30B13091F00E94BC05B1E008950C94BC055E
S1130A40672F782F8827B85F39F0B93FCCF38695A4
S1130A5077956795B395D9F73EF490958095709501
S1130A6061957F4F8F4F9F4F0895E89409C097FB7E
S1130A703EF490958095709561957F4F8F4F9F4F71
S1130A809923A9F0F92F96E9BB279395F6958795B5
S1130A9077956795B795F111F8CFFAF4BB0F11F478
S1130AA060FF1BC06F5F7F4F8F4F9F4F16C088231F
S1130AB011F096E911C0772321F09EE8872F762F55
S1130AC005C0662371F096E8862F70E060E02AF096
S1130AD09A95660F771F881FDAF7880F9695879582
S1130AE097F9089597F99F6780E870E060E00895AA
S1130AF09FEF80EC089500240A9416161706180632
S1130B000906089500240A9412161306140605060D
S1130B100895092E0394000C11F4882352F0BB0F9E
S1130B2040F4BF2B11F460FF04C06F5F7F4F8F4F01
S1130B309F4F089557FD9058440F551F59F05F3F3C
S1130B4071F04795880F97FB991F61F09F3F79F0EB
S1130B5087950895121613061406551FF2CF46956D
S1130B60F1DF08C0161617061806991FF1CF8695EF
S1130B707105610508940895E894BB2766277727D3
S1130B80CB0197F90895DB018F939F930E94F2059F
S1130B90BF91AF91A29F800D911DA39F900DB29F15
S1130BA0900D11240895052E97FB1EF400940E94C5
S1130BB0EA0557FD07D00E94FD0507FC03D04EF45B
S1130BC00C94EA0550954095309521953F4F4F4F31
S1130BD05F4F089590958095709561957F4F8F4FE5
S1130BE09F4F08950E941F06A59F900DB49F900DDE
S1130BF0A49F800D911D11240895A1E21A2EAA1B11
S1130C00BB1BFD010DC0AA1FBB1FEE1FFF1FA217B8
S1130C10B307E407F50720F0A21BB30BE40BF50BB5
S1130C20661F771F881F991F1A9469F7609570953E
S1130C30809590959B01AC01BD01CF010895A29FC1
S1130C40B001B39FC001A39F700D811D1124911D9C
S1130C50B29F700D811D1124911D0895F894FFCF4A
S1130C6042617369632043616C63756C61746F7274
S1130C70000000000000000000000000000002006E
S1130C80000000000000000000000000000002025C
S1130C90020201003738392F3435362A3132332DE8
S1130CA063303D2B6279204F6D6172204D6F686116
S10D0CB06D6564004552524F520076
S9030000FC
